:020000020000FC
:1000000000C04CEF4AB940E344B918D02D9A5AEFDA
:100010006CD05AEF6AD02D985AEF67D05AEF65D05E
:1000200000E038D034FDF2CF44E462E0A4170607C4
:100030000CF002C00FD001C001D0E8CF289A5F9821
:100040005B9A5C986AE0089528985F9A5B985C9A3E
:1000500065E0089528985F985B985C9860E0089543
:100060002C9852E052D02C9A55E04FD02C980895FD
:1000700074B585B597B540E046BD42E044BD42E069
:1000800045BD42E047BD089554E62FD074BD85BDFF
:1000900097BD0895E5DFECDF1A9BFECF40E046BD3B
:1000A00045B341FFFDCF42E045BBA395AA2361F4D0
:1000B0004CEC66E0A41706074CF41A99EFCFE4DF86
:1000C00040E134FD342708950395F2CF306108955F
:1000D00045E045BD5DE340E046BD45B340FFFDCF93
:1000E00041E045BB5A95B9F7089542E044BD43E06D
:1000F00045BD4AEF47BD40E046BD45B341FFFDCF9A
:1001000042E045BB5A95B9F7089542E044BD42E04C
:1001100045BD42E047BD40E046BD45B341FFFDCF90
:0A01200042E045BB5A95B9F7089577
:00000001FF
