:020000020000FC
:1000000000C04CEF4AB940E344B914D02D9A502FA8
:1000100058D02D98502F55D000E01ED044E462E017
:10002000A41706070CF002C011D003C06A3071F3A8
:1000300001D0ECCF289A5F985B9A5C986AE00895AB
:1000400028985F9A5B985C9A65E0089528985F9875
:100050005B985C9860E008952C9852E042D02C9A0E
:1000600055E03FD02C9874B585B597B540E046BDB6
:1000700042E044BD42E045BD42E047BD1A9BFECF91
:1000800040E046BD45B341FFFDCF42E045BBA395EF
:10009000AA2341F41A99F4CF54E613D074BD85BD58
:1000A00097BD08950395F6CF45E045BD5DE340E07B
:1000B00046BD45B340FFFDCF41E045BB5A95B9F77A
:1000C000089542E044BD43E045BD4AEF47BD40E0EE
:1000D00046BD45B341FFFDCF42E045BB5A95B9F758
:1000E000089542E044BD42E045BD42E047BD40E0E6
:1000F00046BD45B341FFFDCF42E045BB5A95B9F738
:02010000089560
:00000001FF
