:020000020000FC
:1000000000C04CEF4AB940E344B916D02D9A502FA6
:1000100069D02D98502F66D000E03AD034FDF6CF4D
:1000200044E462E0A41706070CF002C011D003C03C
:100030006A3009F001D0EACF289A5F985B9A5C9801
:100040006AE0089528985F9A5B985C9A65E0089545
:1000500028985F985B985C9860E008952C9852E02F
:1000600051D02C9A55E04ED02C98089574B585B592
:1000700097B540E046BD42E044BD42E045BD42E0A8
:1000800047BD089554E62ED074BD85BD97BD089533
:10009000E5DFECDF1A9BFECF40E046BD45B341FFF4
:1000A000FDCF42E045BB4CEC66E0A41706075CF4CC
:1000B000A395AA2331F41A99EFCFE4DF40E1342766
:1000C00008950395F8CF3061089545E045BD5DE39F
:1000D00040E046BD45B340FFFDCF41E045BB5A95EA
:1000E000B9F7089542E044BD43E045BD4AEF47BD3E
:1000F00040E046BD45B341FFFDCF42E045BB5A95C8
:10010000B9F7089542E044BD42E045BD42E047BD35
:1001100040E046BD45B341FFFDCF42E045BB5A95A7
:04012000B9F708958E
:00000001FF
