:020000020000FC
:1000000000C04CEF4AB940E344B914D02D9A502FA8
:1000100065D02D98502F62D000E038D044E462E0E3
:10002000A41706070CF002C011D003C06A3071F3A8
:1000300001D0ECCF289A5F985B9A5C986AE00895AB
:1000400028985F9A5B985C9A65E0089528985F9875
:100050005B985C9860E008952C9852E04FD02C9A01
:1000600055E04CD02C98089574B585B597B540E00F
:1000700046BD42E044BD42E045BD42E047BD089573
:1000800054E62CD074BD85BD97BD0895E5DFECDF47
:100090001A9BFECF40E046BD45B341FFFDCF42E095
:1000A00045BB4CEC66E0A41706074CF4A395AA23C5
:1000B00021F41A99EFCFE4DF08950395FACF306168
:1000C000089545E045BD5DE340E046BD45B340FFD2
:1000D000FDCF41E045BB5A95B9F7089542E044BDD4
:1000E00043E045BD4AEF47BD40E046BD45B341FF53
:1000F000FDCF42E045BB5A95B9F7089542E044BDB3
:1001000042E045BD42E047BD40E046BD45B341FF4A
:0C011000FDCF42E045BB5A95B9F70895B9
:00000001FF
