:020000020000FC
:1000000000C04CEF4AB940E344B91AD02D9A5AEFD8
:100010006ED05AEF6CD02D985AEF69D05AEF67D056
:1000200000E03AD034FDF2CF44E462E0A4170607C2
:100030000CF002C011D003C06A3009F001D0E6CF45
:10004000289A5F985B9A5C986AE0089528985F9A6E
:100050005B985C9A65E0089528985F985B985C9837
:1000600060E008952C9852E052D02C9A55E04FD081
:100070002C98089574B585B597B540E046BD42E02B
:1000800044BD42E045BD42E047BD089554E62FD04F
:1000900074BD85BD97BD0895E5DFECDF1A9BFECFEB
:1000A00040E046BD45B341FFFDCF42E045BB4CECCF
:1000B00066E0A417060764F4A395AA2339F41A99F5
:1000C000EFCFE4DF40E134FD342708950395F7CF07
:1000D0003061089545E045BD5DE340E046BD45B370
:1000E00040FFFDCF41E045BB5A95B9F7089542E086
:1000F00044BD43E045BD4AEF47BD40E046BD45B382
:1001000041FFFDCF42E045BB5A95B9F7089542E063
:1001100044BD42E045BD42E047BD40E046BD45B379
:0E01200041FFFDCF42E045BB5A95B9F7089567
:00000001FF
